{
  "_format": "hh-sol-artifact-1",
  "contractName": "Bank2U",
  "sourceName": "contracts/Bank2U.sol",
  "abi": [
    {
      "inputs": [],
      "name": "balance",
      "outputs": [
        {
          "internalType": "uint256",
          "name": "",
          "type": "uint256"
        }
      ],
      "stateMutability": "view",
      "type": "function"
    },
    {
      "inputs": [],
      "name": "deposit",
      "outputs": [],
      "stateMutability": "payable",
      "type": "function"
    },
    {
      "inputs": [
        {
          "internalType": "uint256",
          "name": "amount",
          "type": "uint256"
        }
      ],
      "name": "withdraw",
      "outputs": [],
      "stateMutability": "nonpayable",
      "type": "function"
    }
  ],
  "bytecode": "0x608060405234801561001057600080fd5b506105a9806100206000396000f3fe6080604052600436106100345760003560e01c80632e1a7d4d14610039578063b69ef8a814610062578063d0e30db01461008d575b600080fd5b34801561004557600080fd5b50610060600480360381019061005b91906102ef565b610097565b005b34801561006e57600080fd5b506100776101fa565b604051610084919061046d565b60405180910390f35b610095610240565b005b600081116100da576040517f08c379a00000000000000000000000000000000000000000000000000000000081526004016100d19061042d565b60405180910390fd5b806000803373ffffffffffffffffffffffffffffffffffffffff1673ffffffffffffffffffffffffffffffffffffffff16815260200190815260200160002054101561015b576040517f08c379a00000000000000000000000000000000000000000000000000000000081526004016101529061040d565b60405180910390fd5b806000803373ffffffffffffffffffffffffffffffffffffffff1673ffffffffffffffffffffffffffffffffffffffff16815260200190815260200160002060008282546101a991906104ef565b925050819055503373ffffffffffffffffffffffffffffffffffffffff166108fc829081150290604051600060405180830381858888f193505050501580156101f6573d6000803e3d6000fd5b5050565b60008060003373ffffffffffffffffffffffffffffffffffffffff1673ffffffffffffffffffffffffffffffffffffffff16815260200190815260200160002054905090565b60003411610283576040517f08c379a000000000000000000000000000000000000000000000000000000000815260040161027a9061044d565b60405180910390fd5b346000803373ffffffffffffffffffffffffffffffffffffffff1673ffffffffffffffffffffffffffffffffffffffff16815260200190815260200160002060008282546102d19190610499565b92505081905550565b6000813590506102e98161055c565b92915050565b60006020828403121561030157600080fd5b600061030f848285016102da565b91505092915050565b6000610325601483610488565b91507f496e73756666696369656e742062616c616e63650000000000000000000000006000830152602082019050919050565b6000610365601883610488565b91507f506c656173652070726f7669646520616e20616d6f756e7400000000000000006000830152602082019050919050565b60006103a5602683610488565b91507f506c65617365206465706f73697420616e797468696e67206d6f72652074686160008301527f6e207a65726f00000000000000000000000000000000000000000000000000006020830152604082019050919050565b61040781610523565b82525050565b6000602082019050818103600083015261042681610318565b9050919050565b6000602082019050818103600083015261044681610358565b9050919050565b6000602082019050818103600083015261046681610398565b9050919050565b600060208201905061048260008301846103fe565b92915050565b600082825260208201905092915050565b60006104a482610523565b91506104af83610523565b9250827fffffffffffffffffffffffffffffffffffffffffffffffffffffffffffffffff038211156104e4576104e361052d565b5b828201905092915050565b60006104fa82610523565b915061050583610523565b9250828210156105185761051761052d565b5b828203905092915050565b6000819050919050565b7f4e487b7100000000000000000000000000000000000000000000000000000000600052601160045260246000fd5b61056581610523565b811461057057600080fd5b5056fea2646970667358221220004207b3be117bca5adc9505e8988bd144ea0e3962983f1b83e5655915ec23d264736f6c63430008000033",
  "linkReferences": {},
  "deployedLinkReferences": {}
}